{
  "contractName": "CyberLawRegistry",
  "abi": [
    {
      "inputs": [],
      "stateMutability": "nonpayable",
      "type": "constructor"
    },
    {
      "inputs": [],
      "name": "lawCount",
      "outputs": [
        {
          "internalType": "uint256",
          "name": "",
          "type": "uint256"
        }
      ],
      "stateMutability": "view",
      "type": "function",
      "constant": true
    },
    {
      "inputs": [
        {
          "internalType": "uint256",
          "name": "",
          "type": "uint256"
        }
      ],
      "name": "laws",
      "outputs": [
        {
          "internalType": "uint256",
          "name": "id",
          "type": "uint256"
        },
        {
          "internalType": "string",
          "name": "title",
          "type": "string"
        },
        {
          "internalType": "string",
          "name": "description",
          "type": "string"
        }
      ],
      "stateMutability": "view",
      "type": "function",
      "constant": true
    },
    {
      "inputs": [],
      "name": "owner",
      "outputs": [
        {
          "internalType": "address",
          "name": "",
          "type": "address"
        }
      ],
      "stateMutability": "view",
      "type": "function",
      "constant": true
    },
    {
      "inputs": [
        {
          "internalType": "string",
          "name": "_title",
          "type": "string"
        },
        {
          "internalType": "string",
          "name": "_description",
          "type": "string"
        }
      ],
      "name": "addLaw",
      "outputs": [],
      "stateMutability": "nonpayable",
      "type": "function"
    },
    {
      "inputs": [],
      "name": "getLawCount",
      "outputs": [
        {
          "internalType": "uint256",
          "name": "",
          "type": "uint256"
        }
      ],
      "stateMutability": "view",
      "type": "function",
      "constant": true
    },
    {
      "inputs": [
        {
          "internalType": "uint256",
          "name": "_id",
          "type": "uint256"
        }
      ],
      "name": "getLaw",
      "outputs": [
        {
          "internalType": "string",
          "name": "",
          "type": "string"
        },
        {
          "internalType": "string",
          "name": "",
          "type": "string"
        }
      ],
      "stateMutability": "view",
      "type": "function",
      "constant": true
    },
    {
      "inputs": [],
      "name": "getAllLaws",
      "outputs": [
        {
          "components": [
            {
              "internalType": "uint256",
              "name": "id",
              "type": "uint256"
            },
            {
              "internalType": "string",
              "name": "title",
              "type": "string"
            },
            {
              "internalType": "string",
              "name": "description",
              "type": "string"
            }
          ],
          "internalType": "struct CyberLawRegistry.Law[]",
          "name": "",
          "type": "tuple[]"
        }
      ],
      "stateMutability": "view",
      "type": "function",
      "constant": true
    }
  ],
  "bytecode": "0x608060405234801561001057600080fd5b50336000806101000a81548173ffffffffffffffffffffffffffffffffffffffff021916908373ffffffffffffffffffffffffffffffffffffffff160217905550610f5b806100606000396000f3fe608060405234801561001057600080fd5b506004361061007d5760003560e01c80637ebdee0d1161005b5780637ebdee0d146100da5780638da5cb5b1461010c578063c37d1d921461012a578063c3b53ba4146101485761007d565b80630d7368311461008257806326ba59941461009e5780636475f4fe146100bc575b600080fd5b61009c600480360381019061009791906108d4565b610179565b005b6100a66102b1565b6040516100b39190610b83565b60405180910390f35b6100c461043e565b6040516100d19190610c1c565b60405180910390f35b6100f460048036038101906100ef9190610940565b610448565b60405161010393929190610c37565b60405180910390f35b610114610592565b6040516101219190610b68565b60405180910390f35b6101326105b6565b60405161013f9190610c1c565b60405180910390f35b610162600480360381019061015d9190610940565b6105bc565b604051610170929190610ba5565b60405180910390f35b60008054906101000a900473ffffffffffffffffffffffffffffffffffffffff1673ffffffffffffffffffffffffffffffffffffffff163373ffffffffffffffffffffffffffffffffffffffff1614610207576040517f08c379a00000000000000000000000000000000000000000000000000000000081526004016101fe90610bfc565b60405180910390fd5b6002600081548092919061021a90610e27565b919050555060016040518060600160405280600254815260200184815260200183815250908060018154018082558091505060019003906000526020600020906003020160009091909190915060008201518160000155602082015181600101908051906020019061028d9291906107b4565b5060408201518160020190805190602001906102aa9291906107b4565b5050505050565b60606001805480602002602001604051908101604052809291908181526020016000905b8282101561043557838290600052602060002090600302016040518060600160405290816000820154815260200160018201805461031290610df5565b80601f016020809104026020016040519081016040528092919081815260200182805461033e90610df5565b801561038b5780601f106103605761010080835404028352916020019161038b565b820191906000526020600020905b81548152906001019060200180831161036e57829003601f168201915b505050505081526020016002820180546103a490610df5565b80601f01602080910402602001604051908101604052809291908181526020018280546103d090610df5565b801561041d5780601f106103f25761010080835404028352916020019161041d565b820191906000526020600020905b81548152906001019060200180831161040057829003601f168201915b505050505081525050815260200190600101906102d5565b50505050905090565b6000600254905090565b6001818154811061045857600080fd5b906000526020600020906003020160009150905080600001549080600101805461048190610df5565b80601f01602080910402602001604051908101604052809291908181526020018280546104ad90610df5565b80156104fa5780601f106104cf576101008083540402835291602001916104fa565b820191906000526020600020905b8154815290600101906020018083116104dd57829003601f168201915b50505050509080600201805461050f90610df5565b80601f016020809104026020016040519081016040528092919081815260200182805461053b90610df5565b80156105885780601f1061055d57610100808354040283529160200191610588565b820191906000526020600020905b81548152906001019060200180831161056b57829003601f168201915b5050505050905083565b60008054906101000a900473ffffffffffffffffffffffffffffffffffffffff1681565b60025481565b6060806000831180156105d157506002548311155b610610576040517f08c379a000000000000000000000000000000000000000000000000000000000815260040161060790610bdc565b60405180910390fd5b6000600180856106209190610d43565b81548110610657577f4e487b7100000000000000000000000000000000000000000000000000000000600052603260045260246000fd5b90600052602060002090600302016040518060600160405290816000820154815260200160018201805461068a90610df5565b80601f01602080910402602001604051908101604052809291908181526020018280546106b690610df5565b80156107035780601f106106d857610100808354040283529160200191610703565b820191906000526020600020905b8154815290600101906020018083116106e657829003601f168201915b5050505050815260200160028201805461071c90610df5565b80601f016020809104026020016040519081016040528092919081815260200182805461074890610df5565b80156107955780601f1061076a57610100808354040283529160200191610795565b820191906000526020600020905b81548152906001019060200180831161077857829003601f168201915b5050505050815250509050806020015181604001519250925050915091565b8280546107c090610df5565b90600052602060002090601f0160209004810192826107e25760008555610829565b82601f106107fb57805160ff1916838001178555610829565b82800160010185558215610829579182015b8281111561082857825182559160200191906001019061080d565b5b509050610836919061083a565b5090565b5b8082111561085357600081600090555060010161083b565b5090565b600061086a61086584610cad565b610c7c565b90508281526020810184848401111561088257600080fd5b61088d848285610db3565b509392505050565b600082601f8301126108a657600080fd5b81356108b6848260208601610857565b91505092915050565b6000813590506108ce81610f0e565b92915050565b600080604083850312156108e757600080fd5b600083013567ffffffffffffffff81111561090157600080fd5b61090d85828601610895565b925050602083013567ffffffffffffffff81111561092a57600080fd5b61093685828601610895565b9150509250929050565b60006020828403121561095257600080fd5b6000610960848285016108bf565b91505092915050565b60006109758383610af3565b905092915050565b61098681610d77565b82525050565b600061099782610ced565b6109a18185610d10565b9350836020820285016109b385610cdd565b8060005b858110156109ef57848403895281516109d08582610969565b94506109db83610d03565b925060208a019950506001810190506109b7565b50829750879550505050505092915050565b6000610a0c82610cf8565b610a168185610d21565b9350610a26818560208601610dc2565b610a2f81610efd565b840191505092915050565b6000610a4582610cf8565b610a4f8185610d32565b9350610a5f818560208601610dc2565b610a6881610efd565b840191505092915050565b6000610a80600a83610d32565b91507f496e76616c6964204944000000000000000000000000000000000000000000006000830152602082019050919050565b6000610ac0600e83610d32565b91507f4e6f7420617574686f72697a65640000000000000000000000000000000000006000830152602082019050919050565b6000606083016000830151610b0b6000860182610b4a565b5060208301518482036020860152610b238282610a01565b91505060408301518482036040860152610b3d8282610a01565b9150508091505092915050565b610b5381610da9565b82525050565b610b6281610da9565b82525050565b6000602082019050610b7d600083018461097d565b92915050565b60006020820190508181036000830152610b9d818461098c565b905092915050565b60006040820190508181036000830152610bbf8185610a3a565b90508181036020830152610bd38184610a3a565b90509392505050565b60006020820190508181036000830152610bf581610a73565b9050919050565b60006020820190508181036000830152610c1581610ab3565b9050919050565b6000602082019050610c316000830184610b59565b92915050565b6000606082019050610c4c6000830186610b59565b8181036020830152610c5e8185610a3a565b90508181036040830152610c728184610a3a565b9050949350505050565b6000604051905081810181811067ffffffffffffffff82111715610ca357610ca2610ece565b5b8060405250919050565b600067ffffffffffffffff821115610cc857610cc7610ece565b5b601f19601f8301169050602081019050919050565b6000819050602082019050919050565b600081519050919050565b600081519050919050565b6000602082019050919050565b600082825260208201905092915050565b600082825260208201905092915050565b600082825260208201905092915050565b6000610d4e82610da9565b9150610d5983610da9565b925082821015610d6c57610d6b610e70565b5b828203905092915050565b6000610d8282610d89565b9050919050565b600073ffffffffffffffffffffffffffffffffffffffff82169050919050565b6000819050919050565b82818337600083830152505050565b60005b83811015610de0578082015181840152602081019050610dc5565b83811115610def576000848401525b50505050565b60006002820490506001821680610e0d57607f821691505b60208210811415610e2157610e20610e9f565b5b50919050565b6000610e3282610da9565b91507fffffffffffffffffffffffffffffffffffffffffffffffffffffffffffffffff821415610e6557610e64610e70565b5b600182019050919050565b7f4e487b7100000000000000000000000000000000000000000000000000000000600052601160045260246000fd5b7f4e487b7100000000000000000000000000000000000000000000000000000000600052602260045260246000fd5b7f4e487b7100000000000000000000000000000000000000000000000000000000600052604160045260246000fd5b6000601f19601f8301169050919050565b610f1781610da9565b8114610f2257600080fd5b5056fea26469706673582212202de8a3a3ca9ec6995d6b426ceaea8633d546c19b606b9d45ae0f5e09064ccd4264736f6c63430008000033",
  "immutableReferences": {},
  "source": "// SPDX-License-Identifier: MIT\r\npragma solidity ^0.8.0;\r\n\r\ncontract CyberLawRegistry {\r\n    struct Law {\r\n        uint id;\r\n        string title;\r\n        string description;\r\n    }\r\n\r\n    address public owner;\r\n    Law[] public laws;\r\n    uint public lawCount;\r\n\r\n    constructor() {\r\n        owner = msg.sender;\r\n    }\r\n\r\n    // Modifier to restrict access to owner\r\n    modifier onlyOwner() {\r\n        require(msg.sender == owner, \"Not authorized\");\r\n        _;\r\n    }\r\n\r\n    // WRITE: Add a new law\r\n    function addLaw(string memory _title, string memory _description) public onlyOwner {\r\n        lawCount++;\r\n        laws.push(Law(lawCount, _title, _description));\r\n    }\r\n\r\n    // READ: Get total laws count\r\n    function getLawCount() public view returns (uint) {\r\n        return lawCount;\r\n    }\r\n\r\n    // READ: Get law by ID\r\n    function getLaw(uint _id) public view returns (string memory, string memory) {\r\n        require(_id > 0 && _id <= lawCount, \"Invalid ID\");\r\n        Law memory l = laws[_id - 1];\r\n        return (l.title, l.description);\r\n    }\r\n\r\n    // READ: Get all laws\r\n    function getAllLaws() public view returns (Law[] memory) {\r\n        return laws;\r\n    }\r\n}",
  "sourcePath": "C:\\Users\\Muskan Ahmed\\CyberLawRegistry-Truffle\\contracts\\CyberLawRegistry.sol",
  "compiler": {
    "name": "solc",
    "version": "0.8.0+commit.c7dfd78e.Emscripten.clang"
  },
  "schemaVersion": "3.4.16",
  "updatedAt": "2025-11-22T13:54:35.382Z",
  "networkType": "ethereum",
  "devdoc": {
    "kind": "dev",
    "methods": {},
    "version": 1
  },
  "userdoc": {
    "kind": "user",
    "methods": {},
    "version": 1
  }
}